{
  "contractName": "ChangeManager",
  "abi": [
    {
      "inputs": [],
      "payable": false,
      "stateMutability": "nonpayable",
      "type": "constructor"
    },
    {
      "anonymous": false,
      "inputs": [
        {
          "indexed": true,
          "name": "_gitHash",
          "type": "bytes20"
        },
        {
          "indexed": false,
          "name": "_additionalInformation",
          "type": "string"
        },
        {
          "indexed": false,
          "name": "_costs",
          "type": "uint256"
        },
        {
          "indexed": false,
          "name": "_estimation",
          "type": "uint256"
        }
      ],
      "name": "NewChangeRequest",
      "type": "event"
    },
    {
      "anonymous": false,
      "inputs": [
        {
          "indexed": false,
          "name": "_voter",
          "type": "address"
        },
        {
          "indexed": false,
          "name": "_vote",
          "type": "bool"
        },
        {
          "indexed": false,
          "name": "_currentState",
          "type": "uint8"
        },
        {
          "indexed": false,
          "name": "_voteInfo",
          "type": "string"
        },
        {
          "indexed": false,
          "name": "_votesLeft",
          "type": "uint256"
        }
      ],
      "name": "NewVote",
      "type": "event"
    },
    {
      "constant": false,
      "inputs": [
        {
          "name": "gitHash",
          "type": "bytes20"
        },
        {
          "name": "additionalInformation",
          "type": "string"
        },
        {
          "name": "costs",
          "type": "uint256"
        },
        {
          "name": "estimation",
          "type": "uint256"
        }
      ],
      "name": "createNewChangeRequest",
      "outputs": [],
      "payable": false,
      "stateMutability": "nonpayable",
      "type": "function"
    },
    {
      "constant": false,
      "inputs": [
        {
          "name": "gitHash",
          "type": "bytes20"
        },
        {
          "name": "acceptChange",
          "type": "bool"
        },
        {
          "name": "responsibleParties",
          "type": "address[]"
        },
        {
          "name": "voteInfo",
          "type": "string"
        }
      ],
      "name": "managementVote",
      "outputs": [],
      "payable": false,
      "stateMutability": "nonpayable",
      "type": "function"
    },
    {
      "constant": false,
      "inputs": [
        {
          "name": "gitHash",
          "type": "bytes20"
        },
        {
          "name": "acceptChange",
          "type": "bool"
        },
        {
          "name": "voteInfo",
          "type": "string"
        }
      ],
      "name": "responsibleVote",
      "outputs": [],
      "payable": false,
      "stateMutability": "nonpayable",
      "type": "function"
    },
    {
      "constant": false,
      "inputs": [
        {
          "name": "gitHash",
          "type": "bytes20"
        }
      ],
      "name": "releaseChange",
      "outputs": [],
      "payable": false,
      "stateMutability": "nonpayable",
      "type": "function"
    },
    {
      "constant": true,
      "inputs": [
        {
          "name": "gitHash",
          "type": "bytes20"
        }
      ],
      "name": "viewChange",
      "outputs": [
        {
          "name": "additionalInformation",
          "type": "string"
        },
        {
          "name": "costs",
          "type": "uint256"
        },
        {
          "name": "estimation",
          "type": "uint256"
        }
      ],
      "payable": false,
      "stateMutability": "view",
      "type": "function"
    },
    {
      "constant": true,
      "inputs": [
        {
          "name": "gitHash",
          "type": "bytes20"
        }
      ],
      "name": "viewState",
      "outputs": [
        {
          "name": "state",
          "type": "uint8"
        },
        {
          "name": "voteCount",
          "type": "uint256"
        },
        {
          "name": "voteInfo",
          "type": "string"
        }
      ],
      "payable": false,
      "stateMutability": "view",
      "type": "function"
    }
  ],
  "bytecode": "0x608060405234801561001057600080fd5b50336000806101000a81548173ffffffffffffffffffffffffffffffffffffffff021916908373ffffffffffffffffffffffffffffffffffffffff160217905550611599806100606000396000f300608060405260043610610078576000357c0100000000000000000000000000000000000000000000000000000000900463ffffffff168063453940501461007d5780635486ecf014610140578063a90a832014610211578063b6c3c9aa1461024d578063e8f509de146102e3578063ee94819814610371575b600080fd5b34801561008957600080fd5b506100b760048036038101908080356bffffffffffffffffffffffff19169060200190929190505050610442565b6040518080602001848152602001838152602001828103825285818151815260200191508051906020019080838360005b838110156101035780820151818401526020810190506100e8565b50505050905090810190601f1680156101305780820380516001836020036101000a031916815260200191505b5094505050505060405180910390f35b34801561014c57600080fd5b5061017a60048036038101908080356bffffffffffffffffffffffff1916906020019092919050505061058e565b6040518084600481111561018a57fe5b60ff16815260200183815260200180602001828103825283818151815260200191508051906020019080838360005b838110156101d45780820151818401526020810190506101b9565b50505050905090810190601f1680156102015780820380516001836020036101000a031916815260200191505b5094505050505060405180910390f35b34801561021d57600080fd5b5061024b60048036038101908080356bffffffffffffffffffffffff191690602001909291905050506106e7565b005b34801561025957600080fd5b506102e160048036038101908080356bffffffffffffffffffffffff19169060200190929190803590602001908201803590602001908080601f016020809104026020016040519081016040528093929190818152602001838380828437820191505050505050919291929080359060200190929190803590602001909291905050506108ae565b005b3480156102ef57600080fd5b5061036f60048036038101908080356bffffffffffffffffffffffff19169060200190929190803515159060200190929190803590602001908201803590602001908080601f0160208091040260200160405190810160405280939291908181526020018383808284378201915050505050509192919290505050610b59565b005b34801561037d57600080fd5b5061044060048036038101908080356bffffffffffffffffffffffff1916906020019092919080351515906020019092919080359060200190820180359060200190808060200260200160405190810160405280939291908181526020018383602002808284378201915050505050509192919290803590602001908201803590602001908080601f0160208091040260200160405190810160405280939291908181526020018383808284378201915050505050509192919290505050610ff5565b005b606060008060016000856bffffffffffffffffffffffff19166bffffffffffffffffffffffff1916815260200190815260200160002060020160016000866bffffffffffffffffffffffff19166bffffffffffffffffffffffff191681526020019081526020016000206003015460016000876bffffffffffffffffffffffff19166bffffffffffffffffffffffff1916815260200190815260200160002060040154828054600181600116156101000203166002900480601f01602080910402602001604051908101604052809291908181526020018280546001816001161561010002031660029004801561057a5780601f1061054f5761010080835404028352916020019161057a565b820191906000526020600020905b81548152906001019060200180831161055d57829003601f168201915b505050505092509250925092509193909250565b600080606060016000856bffffffffffffffffffffffff19166bffffffffffffffffffffffff1916815260200190815260200160002060050160009054906101000a900460ff1660016000866bffffffffffffffffffffffff19166bffffffffffffffffffffffff191681526020019081526020016000206007015460016000876bffffffffffffffffffffffff19166bffffffffffffffffffffffff19168152602001908152602001600020600801808054600181600116156101000203166002900480601f0160208091040260200160405190810160405280929190818152602001828054600181600116156101000203166002900480156106d35780601f106106a8576101008083540402835291602001916106d3565b820191906000526020600020905b8154815290600101906020018083116106b657829003601f168201915b505050505090509250925092509193909250565b600260048111156106f457fe5b60016000836bffffffffffffffffffffffff19166bffffffffffffffffffffffff1916815260200190815260200160002060050160009054906101000a900460ff16600481111561074157fe5b14151561074d57600080fd5b600460016000836bffffffffffffffffffffffff19166bffffffffffffffffffffffff1916815260200190815260200160002060050160006101000a81548160ff0219169083600481111561079e57fe5b02179055507f781d1287eb4b0b622e24d987f2923ca0a31615fb5901103a2b563aaedf62020a336001806000856bffffffffffffffffffffffff19166bffffffffffffffffffffffff1916815260200190815260200160002060050160009054906101000a900460ff166000604051808573ffffffffffffffffffffffffffffffffffffffff1673ffffffffffffffffffffffffffffffffffffffff1681526020018415151515815260200183600481111561085657fe5b60ff16815260200180602001838152602001828103825260088152602001807f52656c65617365640000000000000000000000000000000000000000000000008152506020019550505050505060405180910390a150565b6108b66113d2565b8481602001906bffffffffffffffffffffffff191690816bffffffffffffffffffffffff191681525050838160400181905250828160600181815250508181608001818152505033816000019073ffffffffffffffffffffffffffffffffffffffff16908173ffffffffffffffffffffffffffffffffffffffff168152505060008160a00190600481111561094757fe5b9081600481111561095457fe5b815250508060016000876bffffffffffffffffffffffff19166bffffffffffffffffffffffff1916815260200190815260200160002060008201518160000160006101000a81548173ffffffffffffffffffffffffffffffffffffffff021916908373ffffffffffffffffffffffffffffffffffffffff16021790555060208201518160010160006101000a81548173ffffffffffffffffffffffffffffffffffffffff02191690836c01000000000000000000000000900402179055506040820151816002019080519060200190610a2e929190611448565b50606082015181600301556080820151816004015560a08201518160050160006101000a81548160ff02191690836004811115610a6757fe5b021790555060c0820151816007015560e0820151816008019080519060200190610a92929190611448565b50905050846bffffffffffffffffffffffff19167f9f2cba2af400f8f1c554efa85030438338e522820f67de11f094a2a1f39fdbbb8585856040518080602001848152602001838152602001828103825285818151815260200191508051906020019080838360005b83811015610b16578082015181840152602081019050610afb565b50505050905090810190601f168015610b435780820380516001836020036101000a031916815260200191505b5094505050505060405180910390a25050505050565b600060016000856bffffffffffffffffffffffff19166bffffffffffffffffffffffff19168152602001908152602001600020905060016004811115610b9b57fe5b8160050160009054906101000a900460ff166004811115610bb857fe5b141515610bc457600080fd5b8060060160003373ffffffffffffffffffffffffffffffffffffffff1673ffffffffffffffffffffffffffffffffffffffff16815260200190815260200160002060009054906101000a900460ff161515610c1e57600080fd5b60008160060160003373ffffffffffffffffffffffffffffffffffffffff1673ffffffffffffffffffffffffffffffffffffffff16815260200190815260200160002060006101000a81548160ff021916908315150217905550821515610def5760038160050160006101000a81548160ff02191690836004811115610ca057fe5b021790555081816008019080519060200190610cbd9291906114c8565b507f781d1287eb4b0b622e24d987f2923ca0a31615fb5901103a2b563aaedf62020a33848360050160009054906101000a900460ff16846008016000604051808673ffffffffffffffffffffffffffffffffffffffff1673ffffffffffffffffffffffffffffffffffffffff16815260200185151515158152602001846004811115610d4557fe5b60ff16815260200180602001838152602001828103825284818154600181600116156101000203166002900481526020019150805460018160011615610100020316600290048015610dd85780601f10610dad57610100808354040283529160200191610dd8565b820191906000526020600020905b815481529060010190602001808311610dbb57829003601f168201915b5050965050505050505060405180910390a1610fef565b60018160070154038160070181905550600081600701541415610f125760028160050160006101000a81548160ff02191690836004811115610e2d57fe5b02179055507f781d1287eb4b0b622e24d987f2923ca0a31615fb5901103a2b563aaedf62020a33848360050160009054906101000a900460ff168460070154604051808573ffffffffffffffffffffffffffffffffffffffff1673ffffffffffffffffffffffffffffffffffffffff16815260200184151515158152602001836004811115610eb857fe5b60ff168152602001806020018381526020018281038252600d8152602001807f566f74652046696e6973686564000000000000000000000000000000000000008152506020019550505050505060405180910390a1610fee565b7f781d1287eb4b0b622e24d987f2923ca0a31615fb5901103a2b563aaedf62020a33848360050160009054906101000a900460ff168460070154604051808573ffffffffffffffffffffffffffffffffffffffff1673ffffffffffffffffffffffffffffffffffffffff16815260200184151515158152602001836004811115610f9857fe5b60ff16815260200180602001838152602001828103825260108152602001807f526573706f6e7369626c6520566f7465000000000000000000000000000000008152506020019550505050505060405180910390a15b5b50505050565b60008060016000876bffffffffffffffffffffffff19166bffffffffffffffffffffffff1916815260200190815260200160002091506000809054906101000a900473ffffffffffffffffffffffffffffffffffffffff1673ffffffffffffffffffffffffffffffffffffffff163373ffffffffffffffffffffffffffffffffffffffff1614151561108657600080fd5b6000600481111561109357fe5b8260050160009054906101000a900460ff1660048111156110b057fe5b1415156110bc57600080fd5b841561125e5783518260070181905550600090505b835181101561115857600182600601600086848151811015156110f057fe5b9060200190602002015173ffffffffffffffffffffffffffffffffffffffff1673ffffffffffffffffffffffffffffffffffffffff16815260200190815260200160002060006101000a81548160ff02191690831515021790555080806001019150506110d1565b60018260050160006101000a81548160ff0219169083600481111561117957fe5b02179055507f781d1287eb4b0b622e24d987f2923ca0a31615fb5901103a2b563aaedf62020a33868460050160009054906101000a900460ff168560070154604051808573ffffffffffffffffffffffffffffffffffffffff1673ffffffffffffffffffffffffffffffffffffffff1681526020018415151515815260200183600481111561120457fe5b60ff168152602001806020018381526020018281038252600f8152602001807f4d616e6167656d656e7420566f746500000000000000000000000000000000008152506020019550505050505060405180910390a16113ca565b60038260050160006101000a81548160ff0219169083600481111561127f57fe5b02179055508282600801908051906020019061129c9291906114c8565b507f781d1287eb4b0b622e24d987f2923ca0a31615fb5901103a2b563aaedf62020a33868460050160009054906101000a900460ff16856008016000604051808673ffffffffffffffffffffffffffffffffffffffff1673ffffffffffffffffffffffffffffffffffffffff1681526020018515151515815260200184600481111561132457fe5b60ff168152602001806020018381526020018281038252848181546001816001161561010002031660029004815260200191508054600181600116156101000203166002900480156113b75780601f1061138c576101008083540402835291602001916113b7565b820191906000526020600020905b81548152906001019060200180831161139a57829003601f168201915b5050965050505050505060405180910390a15b505050505050565b61010060405190810160405280600073ffffffffffffffffffffffffffffffffffffffff16815260200160006bffffffffffffffffffffffff191681526020016060815260200160008152602001600081526020016000600481111561143457fe5b815260200160008152602001606081525090565b828054600181600116156101000203166002900490600052602060002090601f016020900481019282601f1061148957805160ff19168380011785556114b7565b828001600101855582156114b7579182015b828111156114b657825182559160200191906001019061149b565b5b5090506114c49190611548565b5090565b828054600181600116156101000203166002900490600052602060002090601f016020900481019282601f1061150957805160ff1916838001178555611537565b82800160010185558215611537579182015b8281111561153657825182559160200191906001019061151b565b5b5090506115449190611548565b5090565b61156a91905b8082111561156657600081600090555060010161154e565b5090565b905600a165627a7a7230582038cb6704aba9ac3d9d56c17bea62e123e8db8b5d1b623f424c5045d2f9105d150029",
  "source": "pragma solidity ^0.4.24;\r\n\r\nimport {ChangeTracker} from './ChangeTracker.sol';\r\n\r\n// This contracts serves as a ChangeRequest factory\r\ncontract ChangeManager is ChangeTracker {\r\n    address private _constructionManager;\r\n    mapping(bytes20 => Change) private _changes;\r\n\r\n    constructor() public {\r\n        _constructionManager = msg.sender;\r\n    }\r\n\r\n    // Creates a new ChangeRequest contract and saves the address in _changes\r\n    function createNewChangeRequest(\r\n        bytes20 gitHash,\r\n        string additionalInformation,\r\n        uint256 costs,\r\n        uint256 estimation\r\n    )\r\n    public\r\n    {\r\n        Change memory change;\r\n\r\n        change._gitHash = gitHash;\r\n        change._additionalInformation = additionalInformation;\r\n        change._costs = costs;\r\n        change._estimation = estimation;\r\n        change._changeOwner = msg.sender;\r\n        change._state = State.changeProposed;\r\n\r\n        _changes[gitHash] = change;\r\n\r\n        emit NewChangeRequest(gitHash, additionalInformation, costs, estimation);\r\n    }\r\n\r\n    // Function can only be run by the owner of the ChangeManager contract (construction manager). The construction\r\n    // manager does the first review of the ChangeRequest, can reject it or employ the responsible parties who are\r\n    // allowed to vote on the change.\r\n    function managementVote(\r\n        bytes20 gitHash,\r\n        bool acceptChange,\r\n        address[] responsibleParties,\r\n        string voteInfo\r\n    )\r\n    public\r\n    {\r\n        Change storage change = _changes[gitHash];\r\n        require(msg.sender == _constructionManager);\r\n        require(change._state == State.changeProposed);\r\n\r\n        if (acceptChange) {\r\n            change._voteCount = responsibleParties.length;\r\n            for (uint i = 0; i < responsibleParties.length; i++) {\r\n                change._allowedToVote[responsibleParties[i]] = true;\r\n            }\r\n            change._state = State.changeManaged;\r\n            emit NewVote(msg.sender, acceptChange, change._state, \"Management Vote\", change._voteCount);\r\n        }\r\n        else {\r\n            change._state = State.changeRejected;\r\n            change._voteInfo = voteInfo;\r\n            emit NewVote(msg.sender, acceptChange, change._state, change._voteInfo, 0);\r\n        }\r\n    }\r\n\r\n    // The allowed parties can vote. As soon as everyone has voted the ChangeRequest is either accepted or rejected\r\n    // TODO: If it's rejected, the changeOwner can amend the ChangeRequest and restart the voting process.\r\n    function responsibleVote(\r\n        bytes20 gitHash,\r\n        bool acceptChange,\r\n        string voteInfo\r\n    )\r\n    public\r\n    {\r\n        Change storage change = _changes[gitHash];\r\n        require(change._state == State.changeManaged);\r\n        require(change._allowedToVote[msg.sender]);\r\n        change._allowedToVote[msg.sender] = false;\r\n        if (!acceptChange) {\r\n            change._state = State.changeRejected;\r\n            change._voteInfo = voteInfo;\r\n            emit NewVote(msg.sender, acceptChange, change._state, change._voteInfo, 0);\r\n        }\r\n        else {\r\n            change._voteCount = change._voteCount - 1;\r\n            if (change._voteCount == 0) {\r\n                change._state = State.changeApproved;\r\n                emit NewVote(msg.sender, acceptChange, change._state, \"Vote Finished\", change._voteCount);\r\n            }\r\n            else {\r\n                emit NewVote(msg.sender, acceptChange, change._state, \"Responsible Vote\", change._voteCount);\r\n            }\r\n        }\r\n    }\r\n\r\n    // The ChangeRequest has been accepted and can be released.\r\n    function releaseChange(bytes20 gitHash) public {\r\n        require(_changes[gitHash]._state == State.changeApproved);\r\n        _changes[gitHash]._state = State.changeReleased;\r\n        emit NewVote(msg.sender, true, _changes[gitHash]._state, \"Released\", 0);\r\n    }\r\n\r\n    // Returns the address of a change\r\n    function viewChange(bytes20 gitHash)\r\n    public\r\n    view\r\n    returns (string additionalInformation, uint256 costs, uint256 estimation)\r\n    {\r\n        return (\r\n        _changes[gitHash]._additionalInformation,\r\n        _changes[gitHash]._costs,\r\n        _changes[gitHash]._estimation\r\n        );\r\n    }\r\n\r\n    // Returns the state of a change\r\n    function viewState(bytes20 gitHash)\r\n    public\r\n    view\r\n    returns (State state, uint256 voteCount, string voteInfo)\r\n    {\r\n        return (\r\n        _changes[gitHash]._state,\r\n        _changes[gitHash]._voteCount,\r\n        _changes[gitHash]._voteInfo\r\n        );\r\n    }\r\n}\r\n",
  "sourcePath": "C:\\Users\\David\\workspace\\ChangeManager\\contracts\\ChangeManager.sol",
  "compiler": {
    "name": "solc",
    "version": "0.4.24+commit.e67f0147.Emscripten.clang"
  },
  "schemaVersion": "2.0.0",
  "updatedAt": "2018-06-27T13:10:03.879Z"
}